:100000000C9435000C945D000C945D000C945D0024
:100010000C945D000C945D000C945D000C945D00EC
:100020000C945D000C945D000C945D000C945D00DC
:100030000C945D000C945D000C945D000C945D00CC
:100040000C9466050C945D000C9434050C940E051C
:100050000C945D000C945D000C945D000C945D00AC
:100060000C945D000C945D00B00511241FBECFEF11
:10007000D8E0DEBFCDBF11E0A0E0B1E0EEEBF7E1EC
:1000800002C005900D92AE39B107D9F722E0AEE972
:10009000B1E001C01D92AC39B207E1F710E0C5E351
:1000A000D0E004C02197FE010E940609C433D107A5
:1000B000C9F70E94EF050C94DD0B0C940000E3EBF4
:1000C000F1E0A089B18982E08C93A485B5851C926A
:1000D000A685B7858FEC8C93108EA489B58986E0B0
:1000E0008C93A289B3898C9180618C93A289B38906
:1000F0008C9188608C93A289B3898C9180688C9351
:100100000288F389E02D80818F7D80830895089592
:10011000CF92DF92EF92FF920F931F93CF93DF93D3
:100120006C017A018B01C0E0D0E0CE15DF0589F0CB
:10013000D8016D918D01D601ED91FC910190F08176
:10014000E02DC6010995892B11F47E0102C021968C
:10015000ECCFC701DF91CF911F910F91FF90EF90EE
:10016000DF90CF900895FC01918D828D981761F0FA
:10017000828DDF01A80FB11D5D968C91928D9F5FDE
:100180009F73928F90E008958FEF9FEF0895FC0189
:10019000918D828D981731F0828DE80FF11D858D3C
:1001A00090E008958FEF9FEF0895FC01918D228DCF
:1001B000892F90E0805C9F4F821B91098F73992754
:1001C000089583EB91E00E94D50021E0892B09F48A
:1001D00020E0822F0895FC01848DDF01A80FB11D5E
:1001E000A35ABF4F2C91848D90E001968F7399276D
:1001F000848FA689B7892C93A089B1898C9180645A
:100200008C93938D848D981306C00288F389E02D1A
:1002100080818F7D80830895EF92FF920F931F93CB
:10022000CF93DF93EC0181E0888F9B8D8C8D9813A9
:1002300005C0E889F989808185FD24C0F62E0B8DE3
:1002400010E00F5F1F4F0F731127E02E8C8DE81207
:100250000CC00FB607FCFACFE889F989808185FFC9
:10026000F5CFCE010E94EB00F1CF8B8DFE01E80FA0
:10027000F11DE35AFF4FF0820B8FEA89FB898081E1
:10028000806207C0EE89FF896083E889F9898081EF
:100290008064808381E090E0DF91CF911F910F9186
:1002A000FF90EF900895CF93DF93EC01888D882322
:1002B000C9F0EA89FB89808185FD05C0A889B989D3
:1002C0008C9186FD0FC00FB607FCF5CF808185FFAE
:1002D000F2CFA889B9898C9185FFEDCFCE010E941C
:1002E000EB00E7CFDF91CF91089580E090E0892B7C
:1002F00029F00E94E10081110C94000008953FB79D
:10030000F8948091A4019091A501A091A601B091CB
:10031000A70126B5A89B05C02F3F19F00196A11D86
:10032000B11D3FBFBA2FA92F982F8827820F911D8B
:10033000A11DB11DBC01CD0142E0660F771F881FD2
:10034000991F4A95D1F708952FB7F8946091A001AD
:100350007091A1018091A2019091A3012FBF0895F6
:100360008F929F92AF92BF92CF92DF92EF92FF92C5
:100370006B017C010E94A4014B015C01C60ED71EDB
:10038000E81EF91E0E94A401681579058A059B05DF
:1003900028F0C616D706E806F906A0F7FF90EF90FA
:1003A000DF90CF90BF90AF909F908F9008950F9364
:1003B0001F930E94A4016093BB017093BC018093C2
:1003C000BD019093BE01E091B301F091B4010680AC
:1003D000F781E02D83EB91E0099597FF1FC00E9404
:1003E000A4010091BB011091BC012091BD0130918D
:1003F000BE01DC01CB01801B910BA20BB30B009162
:10040000B7011091B8012091B9013091BA0180175C
:100410009107A207B307B8F28FEF9FEF1F910F91DB
:1004200008950E94030BCF93DF93FC012481358153
:100430004217530780F4FB01DC01CD91DC91608110
:100440007181CE01840F951F0E94180B009719F03F
:100450008C1B9D0B02C08FEF9FEFDF91CF91089512
:10046000FC01808191810C94A1090F931F93CF937C
:10047000DF93EC0188819981009729F02A813B81E3
:100480002617370788F48B016F5F7F4F0E94390A68
:10049000009761F0998388831B830A832C813D81B7
:1004A000232B11F4FC01108281E001C080E0DF9178
:1004B000CF911F910F910895EF92FF920F931F9389
:1004C000CF93DF93EC017B018A01BA010E943502D0
:1004D0002881398181110DC02115310519F0C9011B
:1004E0000E94A109198218821D821C821B821A8215
:1004F00006C01D830C83B701C9010E94110BCE01F8
:10050000DF91CF911F910F91FF90EF900895FB0124
:10051000DC0111961C921E9213961C921E92129749
:1005200015961C921E9214978617970749F06081C2
:1005300071816115710521F0448155810C945C0233
:100540000895FC0111821082138212821582148296
:100550006115710551F0FB0101900020E9F7319719
:10056000AF01461B570B0C945C0208956115710591
:1005700079F0FB0101900020E9F73197AF01461BAC
:10058000570BDC01ED91FC910280F381E02D099481
:1005900080E090E00895CF93DF93FC014481558182
:1005A0006081718183EB91E00E948800EC0167E239
:1005B00071E083EB91E00E94B6028C0F9D1FDF91EA
:1005C000CF9108954F925F926F927F92EF92FF9238
:1005D0000F931F93CF93DF93CDB7DEB7A1970FB6DD
:1005E000F894DEBF0FBECDBF7C01FA01CB0119A28A
:1005F000223008F42AE08E010F5D1F4F422E512C4D
:10060000612C712CBF01A30192010E94840BF9019E
:10061000CA01015011096A3014F4605D01C0695CBF
:10062000D8016C93232B242B252B61F7B801C7012C
:100630000E94B602A1960FB6F894DEBF0FBECDBFE2
:10064000DF91CF911F910F91FF90EF907F906F906E
:100650005F904F9008950F931F93CF93DF93EC011A
:100660000E94B6028C0167E271E0CE010E94B602E0
:10067000800F911FDF91CF911F910F9108950C94DE
:10068000B6028F929F92AF92BF92CF92DF92EF927B
:10069000FF920F931F93CF93DF93CDB7DEB72897C9
:1006A0000FB6F894DEBF0FBECDBF5C016A0180E0DB
:1006B00090E06F8378870E946E0B6F81788580331E
:1006C00009F4BDC0D5018D919C91009709F4B7C084
:1006D00040E050E00E9413027C0197FDB0C063E34C
:1006E00071E0CE0101960E94A102A701BE016F5FD9
:1006F0007F4FF501808191810E9413028C01CE0110
:1007000001960E94300266E171E0CE0101960E94DE
:10071000A102A701BE016F5F7F4FD5018D919C9112
:100720000E9413024C01CE0101960E943002740116
:100730000F5F1F4FF501A080B1808016910628F44D
:10074000902F812F8401E92EF82E69E271E0CE010D
:1007500001960E94A102D50114968D919C91159746
:100760000817190798F58E159F0508F47C01D50127
:10077000ED91FC911197EE0DFF1D908010826D910F
:100780007C91600F711F6115710569F0FB0101908B
:100790000020E9F73197AF01461B570BCE010196B8
:1007A0000E945C020CC089819A81009711F00E941E
:1007B000A1091A8219821E821D821C821B82F501E8
:1007C00080819181FC01EE0DFF1D9082D6018D91FB
:1007D0009C9111970097D1F069817A81611571051B
:1007E00099F012964D915C9113972D813E8142179D
:1007F000530750F00E94110B8D819E81D6011596F2
:100800009C938E93149713C00E94A10989819A81A9
:10081000F601918380838B819C81938382838D8178
:100820009E81958384831A8219821C821B821E8278
:100830001D82CE0101960E94300281E001C080E05D
:1008400028960FB6F894DEBF0FBECDBFDF91CF91D3
:100850001F910F91FF90EF90DF90CF90BF90AF90DE
:100860009F908F900895CF92DF92EF92FF920F9317
:100870001F93CF93DF93CDB7DEB72C970FB6F894C5
:10088000DEBF0FBECDBF8C016B017A0169E271E062
:10089000CE0101960E94A102B601CE0107960E94E8
:1008A0008702AE014F5F5F4FBE01695F7F4FC80196
:1008B0000E944103182FCE0107960E943002112397
:1008C00069F089819A81009719F00E94320B03C068
:1008D00060E070E0CB01F70171836083CE01019687
:1008E0000E943002812F2C960FB6F894DEBF0FBE07
:1008F000CDBFDF91CF911F910F91FF90EF90DF90CF
:10090000CF900895EF92FF920F931F93CF93DF93B1
:100910001F92CDB7DEB77C01FC0100811181C801B7
:1009200069830E946E0B6981681719F0C8010E94E3
:10093000760BC7010F90DF91CF911F910F91FF9020
:10094000EF900895CF92DF92EF92FF920F931F9353
:10095000CF93DF9300D0CDB7DEB76B0180E390E09B
:100960009A83898360E0CE0101960E948204F60199
:10097000848195818115944008F044C000E010E026
:10098000EE24E394F12CF601848195810817190770
:1009900038F5F60180819181009729F410929E012B
:1009A000EEE9F1E003C0FC01E00FF11F20812A30E5
:1009B000A1F0009729F410929E01EEE9F1E003C046
:1009C000FC01E00FF11F6081FA82E982CE010196FD
:1009D0000E948204FFEFEF1AFF0A0F5F1F4FD3CF71
:1009E000FA82E98260E0CE0101960E94820481E3EE
:1009F00090E09A83898360E0CE0101960E94820490
:100A000081E001C080E00F900F90DF91CF911F91A6
:100A10000F91FF90EF90DF90CF9008951F920F926B
:100A20000FB60F9211242F933F934F935F936F93C1
:100A30007F938F939F93AF93BF93EF93FF9383EB3A
:100A400091E00E94EB00FF91EF91BF91AF919F91D8
:100A50008F917F916F915F914F913F912F910F9067
:100A60000FBE0F901F9018951F920F920FB60F9206
:100A700011242F938F939F93EF93FF93E091C301E2
:100A8000F091C4018081E091C901F091CA0182FD19
:100A900012C090818091CC018F5F8F732091CD0126
:100AA000821751F0E091CC01F0E0ED54FE4F958FAC
:100AB0008093CC0101C08081FF91EF919F918F9134
:100AC0002F910F900FBE0F901F9018951F920F92AD
:100AD0000FB60F9211242F933F938F939F93AF9351
:100AE000BF938091A0019091A101A091A201B0912A
:100AF000A30130919F0123E0230F2D3720F40196AD
:100B0000A11DB11D05C026E8230F0296A11DB11D30
:100B100020939F018093A0019093A101A093A20133
:100B2000B093A3018091A4019091A501A091A60189
:100B3000B091A7010196A11DB11D8093A4019093CE
:100B4000A501A093A601B093A701BF91AF919F917A
:100B50008F913F912F910F900FBE0F901F9018957E
:100B6000E3EBF1E01382128288EE93E0A0E0B0E0C4
:100B700084839583A683B7838AE091E09183808301
:100B800085EC90E09587848784EC90E09787868752
:100B900080EC90E0918B808B81EC90E0938B828B4A
:100BA00082EC90E0958B848B86EC90E0978B868B23
:100BB000118E128E138E148EE0E5F2E016821782EB
:100BC0001086118612861386148615861686178659
:100BD000108A118A128A138A148A158A0895CF936B
:100BE000DF93CDB7DEB72E970FB6F894DEBF0FBEFA
:100BF000CDBF789484B5826084BD84B5816084BDA6
:100C000085B5826085BD85B5816085BD80916E00AA
:100C1000816080936E0010928100809181008260DB
:100C20008093810080918100816080938100809118
:100C300080008160809380008091B1008460809307
:100C4000B1008091B00081608093B00080917A0003
:100C5000846080937A0080917A00826080937A0029
:100C600080917A00816080937A0080917A00806818
:100C700080937A001092C100109294021092950213
:100C80001092960210929702109252021092530202
:100C9000109254021092550268EB7BE080E090E0E5
:100CA0000E94B00183EB91E09093930280939202B3
:100CB0000E945F000E94A40160935202709353024D
:100CC000809354029093550268E171E08091920202
:100CD000909193020E943F036AE070E080E090E010
:100CE0000E94B00181E0809366020E945F0082E072
:100CF00090E00E940C09FC01118210829093AA01DD
:100D00008093A90134EF832E99249394A12CB12CC4
:100D100011E00E94A401672B682B692B41F40E940B
:100D2000A401623071058105910508F405C10E9496
:100D3000A4016093AF017093B0018093B1019093CF
:100D4000B201C090AB01D090AC01E090AD01F09049
:100D5000AE016C157D058E059F0540F46093AB01D7
:100D60007093AC018093AD019093AE01C090AB0144
:100D7000D090AC01E090AD01F090AE019B01AC01D0
:100D80002C193D094E095F0969017A013AEFC31632
:100D9000D104E104F10408F4CFC06093AB01709377
:100DA000AC018093AD019093AE0180925E0290926F
:100DB0005F02A0926002B0926102109262021092F1
:100DC0006302109264021092650280915602909123
:100DD0005702A0915802B091590280935A02909301
:100DE0005B02A0935C02B0935D020E94A401609339
:100DF00056027093570280935802909359020E94B2
:100E0000A401609352027093530280935402909312
:100E100055020E94A4016B017C016AE271E080919D
:100E20009202909193020E943F032AE041E050E039
:100E300060E070E080919202909193020E94E20241
:100E400061E371E080919202909193020E943F03CE
:100E50002AE0B701A60180919202909193020E942C
:100E6000E20263E371E080919202909193020E940A
:100E70003F038091560290915702A0915802B09181
:100E80005902B701A601481B590B6A0B7B0B2AE0DC
:100E900080919202909193020E94E20263E371E0DA
:100EA00080919202909193020E943F0340915602DA
:100EB00050915702609158027091590280915A02E4
:100EC00090915B02A0915C02B0915D02481B590BAE
:100ED0006A0B7B0B2AE080919202909193020E9410
:100EE000E20265E371E080919202909193020E9488
:100EF0003F030E94A401AB01BC012AE08091920251
:100F0000909193020E94E20267E371E08091920265
:100F1000909193020E942B0365E070E080E090E0E6
:100F20000E94B0010E94A401609356027093570280
:100F3000809358029093590283EB91E00E94D50070
:100F4000181619060CF073C06EE371E083EB91E0A4
:100F50000E942B0369E271E0CE0107960E94A10274
:100F60000E94D70197FD1CC089831A82EB84FC8400
:100F70004FEFE41AF40AB701CE0107960E9435023A
:100F8000882371F32F8138858B859C85BE016F5F27
:100F90007F4F820F931F0E94110BFC86EB86E0CFE0
:100FA000BE01695F7F4FCE0101960E948702BE019C
:100FB0006F5F7F4F8091A9019091AA010E94A204C6
:100FC000CE0101960E9430021093A8016AE571E0FB
:100FD00083EB91E00E942B030E947F012B013C01D7
:100FE00028EEC22E23E0D22EE12CF12C0E947F01AC
:100FF000DC01CB0184199509A609B709883E934005
:10100000A105B10558F051E0C51AD108E108F10871
:1010100088EE480E83E0581E611C711CC114D10477
:10102000E104F10419F7CE0107960E943002809185
:10103000A801882309F4E7C06FE571E083EB91E034
:101040000E942B03C090A901D090AA0180E090E0FB
:101050000E946E0B803309F441C0F601E080F180FC
:10106000E114F10431F0C7010E943002C7010E946F
:10107000A10986E090E00E940C097C0169E271E020
:101080000E94A102F601F182E08281E090E00E94DC
:101090006E0B66246394712C882301F1F601E080C5
:1010A000F180F6E08F02E00CF11C1124F601F182D0
:1010B000E082FFEF6F1A7F0A611424E0720651F498
:1010C000E114F10459F0C7010E943002C7010E94E7
:1010D000A10904C0C3010E946E0BDECFF60160813E
:1010E0007181CE0101960E948702CE0101960E9475
:1010F000CB02CE0101960E94300269E771E0CE0179
:1011000001960E94A102AE01435F5F4FBE016F5F77
:101110007F4F8091A9019091AA010E943304F82E7B
:10112000CE0101960E943002FF2079F160E871E063
:1011300083EB91E00E943F03CD84DE840D2C000CF4
:10114000EE08FF08F7FE14C0E091B301F091B4017E
:101150000190F081E02D6DE283EB91E00995442749
:101160005527BA014C195D096E097F092AE003C0B1
:101170002AE0B701A60183EB91E00E94E20267E258
:1011800071E083EB91E00E94B60269E271E0CE016A
:1011900007960E94A1026FE871E0CE0101960E94BD
:1011A000A102AE01495F5F4FBE016F5F7F4F80912B
:1011B000A9019091AA010E944103F82ECE01019647
:1011C0000E943002FF2051F065E971E083EB91E06D
:1011D0000E943F03CE0107960E94CB02E091A90135
:1011E000F091AA01E080F180E114F10431F0C7012F
:1011F0000E943002C7010E94A1091092A801CE01ED
:1012000007960E9430020E94750183CDEE0FFF1FEA
:101210000590F491E02D0994CF93DF9382309105EE
:1012200010F482E090E0E0919A02F0919B0220E0BD
:1012300030E0C0E0D0E0309711F140815181481793
:101240005907C0F04817590761F4828193812097AC
:1012500019F09B838A832BC090939B0280939A0200
:1012600026C02115310519F04217530718F49A01C9
:10127000BE01DF01EF010280F381E02DDCCF2115FB
:10128000310509F1281B390B2430310590F41296F1
:101290008D919C9113976115710521F0FB0193834A
:1012A000828304C090939B0280939A02FD01329640
:1012B00044C0FD01E20FF31F819391932250310945
:1012C0002D933C933AC02091980230919902232BA0
:1012D00041F420910201309103013093990220934F
:1012E000980220910001309101012115310541F44E
:1012F0002DB73EB74091040150910501241B350BD9
:10130000E0919802F0919902E217F307A0F42E1BE6
:101310003F0B2817390778F0AC014E5F5F4F241759
:10132000350748F04E0F5F1F509399024093980283
:101330008193919302C0E0E0F0E0CF01DF91CF9183
:1013400008950F931F93CF93DF93009709F48CC0F8
:10135000FC0132971382128200919A0210919B0233
:101360000115110581F420813181820F931F209195
:101370009802309199022817390779F5F09399026C
:10138000E093980271C0D80140E050E0AE17BF076B
:1013900050F412962D913C911397AD012115310512
:1013A00009F1D901F3CF9D01DA01338322836081F2
:1013B0007181860F971F8217930769F4EC012881CA
:1013C0003981260F371F2E5F3F4F318320838A815B
:1013D0009B8193838283452B29F4F0939B02E093B6
:1013E0009A0242C01396FC93EE931297ED01499135
:1013F00059919E01240F351FE217F30771F4808184
:101400009181840F951F029611969C938E938281F1
:10141000938113969C938E931297E0E0F0E0D801AD
:1014200012968D919C911397009719F0F8018C01F9
:10143000F6CF8D919C9198012E5F3F4F820F931FA5
:1014400020919802309199022817390769F4309752
:1014500029F410929B0210929A0202C01382128207
:101460001093990200939802DF91CF911F910F91F1
:101470000895A0E0B0E0EFE3FAE00C94AA0BEC01D1
:10148000009721F4CB010E940C09B8C0FC01E60FC3
:10149000F71F9C0122503109E217F30708F4ACC092
:1014A000D9010D911C91119706171707B0F005305F
:1014B000110508F49FC0C80104978617970708F420
:1014C00099C002501109061B170B019311936D93DC
:1014D0007C93CF010E94A1098DC05B01A01AB10AC3
:1014E0004C01800E911EA0919A02B0919B0240E0A7
:1014F00050E0E12CF12C109709F44AC0A815B90569
:10150000D1F56D907C901197630182E0C80ED11CDB
:10151000CA14DB0480F1A3014A195B096A0182E065
:10152000C80ED11C1296BC9012971396AC91B5E0E0
:10153000CB16D10440F0B282A38351834083D901FA
:101540006D937C930AC00E5F1F4FC301800F911FE4
:10155000F90191838083EB2DFA2FE114F10431F02E
:10156000D7011396FC93EE93129744C0F0939B021D
:10157000E0939A023FC08D919C91119748175907AB
:1015800008F4AC017D0112960D90BC91A02DB3CF53
:10159000809198029091990288159905E1F4461777
:1015A0005707C8F48091000190910101009741F420
:1015B0008DB79EB74091040150910501841B950B96
:1015C000E817F907C8F4F0939902E0939802F9013B
:1015D000718360830FC0CB010E940C097C010097CE
:1015E00059F0A801BE010E94080BCE010E94A1097A
:1015F000C70104C0CE0102C080E090E0CDB7DEB7E5
:10160000EEE00C94C60B81E090E0F8940C94DD0BB6
:10161000FB01DC0102C001900D9241505040D8F70F
:101620000895FB01DC0101900D920020E1F708957F
:10163000FB0151915523A9F0BF01DC014D914517E4
:101640004111E1F759F4CD010190002049F04D918D
:1016500040154111C9F3FB014111EFCF81E090E04A
:10166000019708951F93FC0199278827BC01E894EE
:1016700011911032E9F3193010F01E30C8F31B320B
:1016800051F01D3249F4689406C00E94590B610F55
:10169000711D811D911D119110531A30B0F33EF44C
:1016A00090958095709561957F4F8F4F9F4F1F91BB
:1016B0000895592F482F372F262F660F771F881F21
:1016C000991F660F771F881F991F620F731F841F52
:1016D000951F660F771F881F991F0895F999FECFF0
:1016E00092BD81BDF89A992780B50895262FF99962
:1016F000FECF1FBA92BD81BD20BD0FB6F894FA9AF5
:10170000F99A0FBE01960895A1E21A2EAA1BBB1BDF
:10171000FD010DC0AA1FBB1FEE1FFF1FA217B307BD
:10172000E407F50720F0A21BB30BE40BF50B661FD3
:10173000771F881F991F1A9469F760957095809597
:1017400090959B01AC01BD01CF0108952F923F926E
:101750004F925F926F927F928F929F92AF92BF92C1
:10176000CF92DF92EF92FF920F931F93CF93DF936D
:10177000CDB7DEB7CA1BDB0B0FB6F894DEBF0FBECA
:10178000CDBF09942A88398848885F846E847D8417
:101790008C849B84AA84B984C884DF80EE80FD8019
:1017A0000C811B81AA81B981CE0FD11D0FB6F8948F
:0E17B000DEBF0FBECDBFED010895F894FFCF50
:1017BE0000009C028000000000000C018800D50093
:1017CE00B300C70053013B00564D4450565F317C69
:1017DE00315F564D4450560D0A00564D4450455FEC
:1017EE00003A323A007C005F564D44504500577225
:1017FE006974696E6720696E2073747265616D20FD
:10180E00746F20454550524F4D00446F6E65005227
:10181E00656164696E672073657475702066726F9A
:10182E006D20454550524F4D004D69646943680027
:10183E004D696469204368616E6E656C3A20004F95
:0E184E00776E6572004F776E65723A2000006B
:107E0000112484B714BE81FFF0D085E080938100F7
:107E100082E08093C00088E18093C10086E0809377
:107E2000C20080E18093C4008EE0C9D0259A86E02C
:107E300020E33CEF91E0309385002093840096BBD3
:107E4000B09BFECF1D9AA8958150A9F7CC24DD24C4
:107E500088248394B5E0AB2EA1E19A2EF3E0BF2EE7
:107E6000A2D0813461F49FD0082FAFD0023811F036
:107E7000013811F484E001C083E08DD089C08234E0
:107E800011F484E103C0853419F485E0A6D080C0E4
:107E9000853579F488D0E82EFF2485D0082F10E0AE
:107EA000102F00270E291F29000F111F8ED06801E7
:107EB0006FC0863521F484E090D080E0DECF843638
:107EC00009F040C070D06FD0082F6DD080E0C81688
:107ED00080E7D80618F4F601B7BEE895C0E0D1E017
:107EE00062D089930C17E1F7F0E0CF16F0E7DF06D8
:107EF00018F0F601B7BEE89568D007B600FCFDCFD4
:107F0000A601A0E0B1E02C9130E011968C91119780
:107F100090E0982F8827822B932B1296FA010C0160
:107F200087BEE89511244E5F5F4FF1E0A038BF0790
:107F300051F7F601A7BEE89507B600FCFDCF97BE46
:107F4000E89526C08437B1F42ED02DD0F82E2BD052
:107F50003CD0F601EF2C8F010F5F1F4F84911BD097
:107F6000EA94F801C1F70894C11CD11CFA94CF0C13
:107F7000D11C0EC0853739F428D08EE10CD085E9AC
:107F80000AD08FE07ACF813511F488E018D01DD067
:107F900080E101D065CF982F8091C00085FFFCCF94
:107FA0009093C60008958091C00087FFFCCF809118
:107FB000C00084FD01C0A8958091C6000895E0E648
:107FC000F0E098E1908380830895EDDF803219F02E
:107FD00088E0F5DFFFCF84E1DECF1F93182FE3DFCA
:107FE0001150E9F7F2DF1F91089580E0E8DFEE27F6
:047FF000FF270994CA
:027FFE00040479
:0400000300007E007B
:00000001FF